{"abi":[{"type":"constructor","inputs":[{"name":"asset_","type":"address","internalType":"contract IERC20"},{"name":"name_","type":"string","internalType":"string"},{"name":"symbol_","type":"string","internalType":"string"},{"name":"owner_","type":"address","internalType":"address"},{"name":"feeRecipient_","type":"address","internalType":"address"},{"name":"depositFeeBps_","type":"uint256","internalType":"uint256"},{"name":"withdrawFeeBps_","type":"uint256","internalType":"uint256"}],"stateMutability":"nonpayable"},{"type":"function","name":"FEE_DENOMINATOR","inputs":[],"outputs":[{"name":"","type":"uint256","internalType":"uint256"}],"stateMutability":"view"},{"type":"function","name":"MAX_FEE","inputs":[],"outputs":[{"name":"","type":"uint256","internalType":"uint256"}],"stateMutability":"view"},{"type":"function","name":"allowance","inputs":[{"name":"owner","type":"address","internalType":"address"},{"name":"spender","type":"address","internalType":"address"}],"outputs":[{"name":"","type":"uint256","internalType":"uint256"}],"stateMutability":"view"},{"type":"function","name":"approve","inputs":[{"name":"spender","type":"address","internalType":"address"},{"name":"value","type":"uint256","internalType":"uint256"}],"outputs":[{"name":"","type":"bool","internalType":"bool"}],"stateMutability":"nonpayable"},{"type":"function","name":"asset","inputs":[],"outputs":[{"name":"","type":"address","internalType":"address"}],"stateMutability":"view"},{"type":"function","name":"balanceOf","inputs":[{"name":"account","type":"address","internalType":"address"}],"outputs":[{"name":"","type":"uint256","internalType":"uint256"}],"stateMutability":"view"},{"type":"function","name":"convertToAssets","inputs":[{"name":"shares","type":"uint256","internalType":"uint256"}],"outputs":[{"name":"","type":"uint256","internalType":"uint256"}],"stateMutability":"view"},{"type":"function","name":"convertToShares","inputs":[{"name":"assets","type":"uint256","internalType":"uint256"}],"outputs":[{"name":"","type":"uint256","internalType":"uint256"}],"stateMutability":"view"},{"type":"function","name":"decimals","inputs":[],"outputs":[{"name":"","type":"uint8","internalType":"uint8"}],"stateMutability":"view"},{"type":"function","name":"deposit","inputs":[{"name":"assets","type":"uint256","internalType":"uint256"},{"name":"receiver","type":"address","internalType":"address"}],"outputs":[{"name":"shares","type":"uint256","internalType":"uint256"}],"stateMutability":"nonpayable"},{"type":"function","name":"depositFeeBps","inputs":[],"outputs":[{"name":"","type":"uint256","internalType":"uint256"}],"stateMutability":"view"},{"type":"function","name":"feeRecipient","inputs":[],"outputs":[{"name":"","type":"address","internalType":"address"}],"stateMutability":"view"},{"type":"function","name":"harvest","inputs":[{"name":"amount","type":"uint256","internalType":"uint256"}],"outputs":[],"stateMutability":"nonpayable"},{"type":"function","name":"maxDeposit","inputs":[{"name":"","type":"address","internalType":"address"}],"outputs":[{"name":"","type":"uint256","internalType":"uint256"}],"stateMutability":"view"},{"type":"function","name":"maxMint","inputs":[{"name":"","type":"address","internalType":"address"}],"outputs":[{"name":"","type":"uint256","internalType":"uint256"}],"stateMutability":"view"},{"type":"function","name":"maxRedeem","inputs":[{"name":"owner","type":"address","internalType":"address"}],"outputs":[{"name":"","type":"uint256","internalType":"uint256"}],"stateMutability":"view"},{"type":"function","name":"maxWithdraw","inputs":[{"name":"owner","type":"address","internalType":"address"}],"outputs":[{"name":"","type":"uint256","internalType":"uint256"}],"stateMutability":"view"},{"type":"function","name":"mint","inputs":[{"name":"shares","type":"uint256","internalType":"uint256"},{"name":"receiver","type":"address","internalType":"address"}],"outputs":[{"name":"assets","type":"uint256","internalType":"uint256"}],"stateMutability":"nonpayable"},{"type":"function","name":"name","inputs":[],"outputs":[{"name":"","type":"string","internalType":"string"}],"stateMutability":"view"},{"type":"function","name":"owner","inputs":[],"outputs":[{"name":"","type":"address","internalType":"address"}],"stateMutability":"view"},{"type":"function","name":"pause","inputs":[],"outputs":[],"stateMutability":"nonpayable"},{"type":"function","name":"paused","inputs":[],"outputs":[{"name":"","type":"bool","internalType":"bool"}],"stateMutability":"view"},{"type":"function","name":"previewDeposit","inputs":[{"name":"assets","type":"uint256","internalType":"uint256"}],"outputs":[{"name":"","type":"uint256","internalType":"uint256"}],"stateMutability":"view"},{"type":"function","name":"previewMint","inputs":[{"name":"shares","type":"uint256","internalType":"uint256"}],"outputs":[{"name":"","type":"uint256","internalType":"uint256"}],"stateMutability":"view"},{"type":"function","name":"previewRedeem","inputs":[{"name":"shares","type":"uint256","internalType":"uint256"}],"outputs":[{"name":"","type":"uint256","internalType":"uint256"}],"stateMutability":"view"},{"type":"function","name":"previewWithdraw","inputs":[{"name":"assets","type":"uint256","internalType":"uint256"}],"outputs":[{"name":"","type":"uint256","internalType":"uint256"}],"stateMutability":"view"},{"type":"function","name":"redeem","inputs":[{"name":"shares","type":"uint256","internalType":"uint256"},{"name":"receiver","type":"address","internalType":"address"},{"name":"owner_","type":"address","internalType":"address"}],"outputs":[{"name":"assets","type":"uint256","internalType":"uint256"}],"stateMutability":"nonpayable"},{"type":"function","name":"renounceOwnership","inputs":[],"outputs":[],"stateMutability":"nonpayable"},{"type":"function","name":"setDepositFee","inputs":[{"name":"newFeeBps","type":"uint256","internalType":"uint256"}],"outputs":[],"stateMutability":"nonpayable"},{"type":"function","name":"setFeeRecipient","inputs":[{"name":"newRecipient","type":"address","internalType":"address"}],"outputs":[],"stateMutability":"nonpayable"},{"type":"function","name":"setWithdrawFee","inputs":[{"name":"newFeeBps","type":"uint256","internalType":"uint256"}],"outputs":[],"stateMutability":"nonpayable"},{"type":"function","name":"symbol","inputs":[],"outputs":[{"name":"","type":"string","internalType":"string"}],"stateMutability":"view"},{"type":"function","name":"totalAssets","inputs":[],"outputs":[{"name":"","type":"uint256","internalType":"uint256"}],"stateMutability":"view"},{"type":"function","name":"totalFeesCollected","inputs":[],"outputs":[{"name":"","type":"uint256","internalType":"uint256"}],"stateMutability":"view"},{"type":"function","name":"totalSupply","inputs":[],"outputs":[{"name":"","type":"uint256","internalType":"uint256"}],"stateMutability":"view"},{"type":"function","name":"transfer","inputs":[{"name":"to","type":"address","internalType":"address"},{"name":"value","type":"uint256","internalType":"uint256"}],"outputs":[{"name":"","type":"bool","internalType":"bool"}],"stateMutability":"nonpayable"},{"type":"function","name":"transferFrom","inputs":[{"name":"from","type":"address","internalType":"address"},{"name":"to","type":"address","internalType":"address"},{"name":"value","type":"uint256","internalType":"uint256"}],"outputs":[{"name":"","type":"bool","internalType":"bool"}],"stateMutability":"nonpayable"},{"type":"function","name":"transferOwnership","inputs":[{"name":"newOwner","type":"address","internalType":"address"}],"outputs":[],"stateMutability":"nonpayable"},{"type":"function","name":"unpause","inputs":[],"outputs":[],"stateMutability":"nonpayable"},{"type":"function","name":"withdraw","inputs":[{"name":"assets","type":"uint256","internalType":"uint256"},{"name":"receiver","type":"address","internalType":"address"},{"name":"owner_","type":"address","internalType":"address"}],"outputs":[{"name":"shares","type":"uint256","internalType":"uint256"}],"stateMutability":"nonpayable"},{"type":"function","name":"withdrawFeeBps","inputs":[],"outputs":[{"name":"","type":"uint256","internalType":"uint256"}],"stateMutability":"view"},{"type":"event","name":"Approval","inputs":[{"name":"owner","type":"address","indexed":true,"internalType":"address"},{"name":"spender","type":"address","indexed":true,"internalType":"address"},{"name":"value","type":"uint256","indexed":false,"internalType":"uint256"}],"anonymous":false},{"type":"event","name":"Deposit","inputs":[{"name":"sender","type":"address","indexed":true,"internalType":"address"},{"name":"owner","type":"address","indexed":true,"internalType":"address"},{"name":"assets","type":"uint256","indexed":false,"internalType":"uint256"},{"name":"shares","type":"uint256","indexed":false,"internalType":"uint256"}],"anonymous":false},{"type":"event","name":"DepositFeeUpdated","inputs":[{"name":"oldFee","type":"uint256","indexed":false,"internalType":"uint256"},{"name":"newFee","type":"uint256","indexed":false,"internalType":"uint256"}],"anonymous":false},{"type":"event","name":"FeeRecipientUpdated","inputs":[{"name":"oldRecipient","type":"address","indexed":false,"internalType":"address"},{"name":"newRecipient","type":"address","indexed":false,"internalType":"address"}],"anonymous":false},{"type":"event","name":"FeesCollected","inputs":[{"name":"recipient","type":"address","indexed":true,"internalType":"address"},{"name":"amount","type":"uint256","indexed":false,"internalType":"uint256"}],"anonymous":false},{"type":"event","name":"OwnershipTransferred","inputs":[{"name":"previousOwner","type":"address","indexed":true,"internalType":"address"},{"name":"newOwner","type":"address","indexed":true,"internalType":"address"}],"anonymous":false},{"type":"event","name":"Paused","inputs":[{"name":"account","type":"address","indexed":false,"internalType":"address"}],"anonymous":false},{"type":"event","name":"Transfer","inputs":[{"name":"from","type":"address","indexed":true,"internalType":"address"},{"name":"to","type":"address","indexed":true,"internalType":"address"},{"name":"value","type":"uint256","indexed":false,"internalType":"uint256"}],"anonymous":false},{"type":"event","name":"Unpaused","inputs":[{"name":"account","type":"address","indexed":false,"internalType":"address"}],"anonymous":false},{"type":"event","name":"Withdraw","inputs":[{"name":"sender","type":"address","indexed":true,"internalType":"address"},{"name":"receiver","type":"address","indexed":true,"internalType":"address"},{"name":"owner","type":"address","indexed":true,"internalType":"address"},{"name":"assets","type":"uint256","indexed":false,"internalType":"uint256"},{"name":"shares","type":"uint256","indexed":false,"internalType":"uint256"}],"anonymous":false},{"type":"event","name":"WithdrawFeeUpdated","inputs":[{"name":"oldFee","type":"uint256","indexed":false,"internalType":"uint256"},{"name":"newFee","type":"uint256","indexed":false,"internalType":"uint256"}],"anonymous":false},{"type":"error","name":"ERC20InsufficientAllowance","inputs":[{"name":"spender","type":"address","internalType":"address"},{"name":"allowance","type":"uint256","internalType":"uint256"},{"name":"needed","type":"uint256","internalType":"uint256"}]},{"type":"error","name":"ERC20InsufficientBalance","inputs":[{"name":"sender","type":"address","internalType":"address"},{"name":"balance","type":"uint256","internalType":"uint256"},{"name":"needed","type":"uint256","internalType":"uint256"}]},{"type":"error","name":"ERC20InvalidApprover","inputs":[{"name":"approver","type":"address","internalType":"address"}]},{"type":"error","name":"ERC20InvalidReceiver","inputs":[{"name":"receiver","type":"address","internalType":"address"}]},{"type":"error","name":"ERC20InvalidSender","inputs":[{"name":"sender","type":"address","internalType":"address"}]},{"type":"error","name":"ERC20InvalidSpender","inputs":[{"name":"spender","type":"address","internalType":"address"}]},{"type":"error","name":"ERC4626ExceededMaxDeposit","inputs":[{"name":"receiver","type":"address","internalType":"address"},{"name":"assets","type":"uint256","internalType":"uint256"},{"name":"max","type":"uint256","internalType":"uint256"}]},{"type":"error","name":"ERC4626ExceededMaxMint","inputs":[{"name":"receiver","type":"address","internalType":"address"},{"name":"shares","type":"uint256","internalType":"uint256"},{"name":"max","type":"uint256","internalType":"uint256"}]},{"type":"error","name":"ERC4626ExceededMaxRedeem","inputs":[{"name":"owner","type":"address","internalType":"address"},{"name":"shares","type":"uint256","internalType":"uint256"},{"name":"max","type":"uint256","internalType":"uint256"}]},{"type":"error","name":"ERC4626ExceededMaxWithdraw","inputs":[{"name":"owner","type":"address","internalType":"address"},{"name":"assets","type":"uint256","internalType":"uint256"},{"name":"max","type":"uint256","internalType":"uint256"}]},{"type":"error","name":"EnforcedPause","inputs":[]},{"type":"error","name":"ExpectedPause","inputs":[]},{"type":"error","name":"FeeExceedsMax","inputs":[{"name":"fee","type":"uint256","internalType":"uint256"},{"name":"max","type":"uint256","internalType":"uint256"}]},{"type":"error","name":"OwnableInvalidOwner","inputs":[{"name":"owner","type":"address","internalType":"address"}]},{"type":"error","name":"OwnableUnauthorizedAccount","inputs":[{"name":"account","type":"address","internalType":"address"}]},{"type":"error","name":"ReentrancyGuardReentrantCall","inputs":[]},{"type":"error","name":"SafeERC20FailedOperation","inputs":[{"name":"token","type":"address","internalType":"address"}]},{"type":"error","name":"ZeroAddress","inputs":[]},{"type":"error","name":"ZeroAmount","inputs":[]}],"bytecode":{"object":"0x60c060405234801562000010575f80fd5b50604051620021c8380380620021c8833981016040819052620000339162000389565b838787876003620000458382620004cb565b506004620000548282620004cb565b5050505f806200006a83620001a560201b60201c565b91509150816200007c5760126200007e565b805b60ff1660a05250506001600160a01b039081166080528116620000bb57604051631e4fbdf760e01b81525f60048201526024015b60405180910390fd5b620000c6816200023e565b5060017f9b779b17422d0df92223018b32b4d1fa46e071723d6817e2486d003becc55f00556001600160a01b038316620001135760405163d92e233d60e01b815260040160405180910390fd5b6103e882111562000143576040516301ff117d60e11b8152600481018390526103e86024820152604401620000b2565b6103e881111562000173576040516301ff117d60e11b8152600481018290526103e86024820152604401620000b2565b600880546001600160a01b0319166001600160a01b039490941693909317909255600655600755506200059792505050565b5f8080620001b260405190565b6040805160048152602481019091526020810180516001600160e01b0390811663313ce56760e01b179091529192505f918291620001f4918891906200028f16565b5090925090506200020483604052565b81801562000213575060203d10155b801562000221575060ff8111155b6200022e575f8062000232565b6001815b94509450505050915091565b600580546001600160a01b038381166001600160a01b0319831681179093556040519116919082907f8be0079c531659141344cd1fd0a4f28419497f9722a3daafe3b4186f6b6457e0905f90a35050565b5f805f60405f855160208701885afa92505f51915060205190509250925092565b6001600160a01b0381168114620002c5575f80fd5b50565b634e487b7160e01b5f52604160045260245ffd5b5f82601f830112620002ec575f80fd5b81516001600160401b0380821115620003095762000309620002c8565b604051601f8301601f19908116603f01168101908282118183101715620003345762000334620002c8565b816040528381526020925086602085880101111562000351575f80fd5b5f91505b8382101562000374578582018301518183018401529082019062000355565b5f602085830101528094505050505092915050565b5f805f805f805f60e0888a031215620003a0575f80fd5b8751620003ad81620002b0565b60208901519097506001600160401b0380821115620003ca575f80fd5b620003d88b838c01620002dc565b975060408a0151915080821115620003ee575f80fd5b50620003fd8a828b01620002dc565b95505060608801516200041081620002b0565b60808901519094506200042381620002b0565b8093505060a0880151915060c0880151905092959891949750929550565b600181811c908216806200045657607f821691505b6020821081036200047557634e487b7160e01b5f52602260045260245ffd5b50919050565b601f821115620004c657805f5260205f20601f840160051c81016020851015620004a25750805b601f840160051c820191505b81811015620004c3575f8155600101620004ae565b50505b505050565b81516001600160401b03811115620004e757620004e7620002c8565b620004ff81620004f8845462000441565b846200047b565b602080601f83116001811462000535575f84156200051d5750858301515b5f19600386901b1c1916600185901b1785556200058f565b5f85815260208120601f198616915b82811015620005655788860151825594840194600190910190840162000544565b50858210156200058357878501515f19600388901b60f8161c191681555b505060018460011b0185555b505050505050565b60805160a051611bc9620005ff5f395f6106b801525f81816102fe0152818161053c015281816107ca0152818161081401528181610974015281816109b101528181610b4301528181610bb401528181610d4901528181610dba0152610e670152611bc95ff3fe608060405234801561000f575f80fd5b506004361061024a575f3560e01c80638456cb5911610140578063bc063e1a116100bf578063d905777e11610084578063d905777e146104b5578063dd62ed3e146104c8578063ddc6326214610500578063e74b981b14610513578063ef8b30f714610486578063f2fde38b14610526575f80fd5b8063bc063e1a1461047d578063c63d75b614610340578063c6e6f59214610486578063ce96cb7714610499578063d73792a9146104ac575f80fd5b8063ab87982711610105578063ab87982714610428578063b3d7f6b914610431578063b460af9414610444578063b6ac642a14610457578063ba0876521461046a575f80fd5b80638456cb59146103e15780638da5cb5b146103e957806394bf804d146103fa57806395d89b411461040d578063a9059cbb14610415575f80fd5b8063402d267d116101cc57806360c6d8ae1161019157806360c6d8ae1461038c5780636e553f651461039557806370a08231146103a8578063715018a6146103d05780637aca2b59146103d8575f80fd5b8063402d267d146103405780634690484014610354578063490ae210146103675780634cdad5061461027e5780635c975abb1461037a575f80fd5b806318160ddd1161021257806318160ddd146102c757806323b872dd146102cf578063313ce567146102e257806338d52e0f146102fc5780633f4ba83a14610336575f80fd5b806301e1d1141461024e57806306fdde031461026957806307a2d13a1461027e578063095ea7b3146102915780630a28a477146102b4575b5f80fd5b610256610539565b6040519081526020015b60405180910390f35b6102716105c8565b60405161026091906117cd565b61025661028c366004611819565b610658565b6102a461029f36600461184b565b610669565b6040519015158152602001610260565b6102566102c2366004611819565b610680565b600254610256565b6102a46102dd366004611873565b61068c565b6102ea6106b1565b60405160ff9091168152602001610260565b7f00000000000000000000000000000000000000000000000000000000000000005b6040516001600160a01b039091168152602001610260565b61033e6106dc565b005b61025661034e3660046118ac565b505f1990565b60085461031e906001600160a01b031681565b61033e610375366004611819565b6106ee565b600554600160a01b900460ff166102a4565b61025660095481565b6102566103a33660046118c5565b61076a565b6102566103b63660046118ac565b6001600160a01b03165f9081526020819052604090205490565b61033e6108f2565b61025660075481565b61033e610903565b6005546001600160a01b031661031e565b6102566104083660046118c5565b610913565b610271610a85565b6102a461042336600461184b565b610a94565b61025660065481565b61025661043f366004611819565b610aa1565b6102566104523660046118ef565b610aad565b61033e610465366004611819565b610c3c565b6102566104783660046118ef565b610cb3565b6102566103e881565b610256610494366004611819565b610e26565b6102566104a73660046118ac565b610e31565b61025661271081565b6102566104c33660046118ac565b610e3a565b6102566104d6366004611928565b6001600160a01b039182165f90815260016020908152604080832093909416825291909152205490565b61033e61050e366004611819565b610e57565b61033e6105213660046118ac565b610e8e565b61033e6105343660046118ac565b610f26565b5f7f00000000000000000000000000000000000000000000000000000000000000006040516370a0823160e01b81523060048201526001600160a01b0391909116906370a0823190602401602060405180830381865afa15801561059f573d5f803e3d5ffd5b505050506040513d601f19601f820116820180604052508101906105c39190611950565b905090565b6060600380546105d790611967565b80601f016020809104026020016040519081016040528092919081815260200182805461060390611967565b801561064e5780601f106106255761010080835404028352916020019161064e565b820191905f5260205f20905b81548152906001019060200180831161063157829003601f168201915b5050505050905090565b5f610663825f610f60565b92915050565b5f33610676818585610f98565b5060019392505050565b5f610663826001610faa565b5f33610699858285610fd9565b6106a4858585611055565b60019150505b9392505050565b5f6105c3817f00000000000000000000000000000000000000000000000000000000000000006119b3565b6106e46110b2565b6106ec6110df565b565b6106f66110b2565b6103e8811115610729576040516301ff117d60e11b8152600481018290526103e860248201526044015b60405180910390fd5b60065460408051918252602082018390527f828cf983933545af35b9ba46eec951db1cb4c5433c3ec403aeced2963c264790910160405180910390a1600655565b5f610773611134565b61077b61114f565b825f0361079b57604051631f2a200560e01b815260040160405180910390fd5b5f6107a88460065461117a565b90505f6107b582866119cc565b90506107c081610e26565b92506107fb3330877f00000000000000000000000000000000000000000000000000000000000000005b6001600160a01b0316929190611192565b811561088a57600854610844906001600160a01b0316837f00000000000000000000000000000000000000000000000000000000000000005b6001600160a01b031691906111c8565b8160095f82825461085591906119df565b90915550506008546040518381526001600160a01b03909116905f80516020611b748339815191529060200160405180910390a25b61089484846111fd565b60408051828152602081018590526001600160a01b0386169133917fdcbc1c05240f31ff3ad067ef1ee35ce4997762752e3a095284754544f4c709d7910160405180910390a3505061066360015f80516020611b5483398151915255565b6108fa6110b2565b6106ec5f611235565b61090b6110b2565b6106ec611286565b5f61091c611134565b61092461114f565b825f0361094457604051631f2a200560e01b815260040160405180910390fd5b5f61094e84610aa1565b90505f61095d826006546112c9565b90505f61096a83836119cc565b90506109983330847f00000000000000000000000000000000000000000000000000000000000000006107ea565b8015610a1b576008546109d5906001600160a01b0316827f0000000000000000000000000000000000000000000000000000000000000000610834565b8060095f8282546109e691906119df565b90915550506008546040518281526001600160a01b03909116905f80516020611b748339815191529060200160405180910390a25b610a2585876111fd565b60408051848152602081018890526001600160a01b0387169133917fdcbc1c05240f31ff3ad067ef1ee35ce4997762752e3a095284754544f4c709d7910160405180910390a35091505061066360015f80516020611b5483398151915255565b6060600480546105d790611967565b5f33610676818585611055565b5f610663826001610f60565b5f610ab6611134565b610abe61114f565b835f03610ade57604051631f2a200560e01b815260040160405180910390fd5b5f610aeb856007546112c9565b90505f610af886836119cc565b9050610b0382610680565b9250336001600160a01b03851614610b2057610b20843385610fd9565b610b2a8484611312565b8015610bad57600854610b67906001600160a01b0316827f0000000000000000000000000000000000000000000000000000000000000000610834565b8060095f828254610b7891906119df565b90915550506008546040518281526001600160a01b03909116905f80516020611b748339815191529060200160405180910390a25b610bd885877f0000000000000000000000000000000000000000000000000000000000000000610834565b60408051838152602081018590526001600160a01b03808716929088169133917ffbde797d201c681b91056529119e0b02407c7bb96a4a2c75c01fc9667232c8db91015b60405180910390a450506106aa60015f80516020611b5483398151915255565b610c446110b2565b6103e8811115610c72576040516301ff117d60e11b8152600481018290526103e86024820152604401610720565b60075460408051918252602082018390527f733071ab8253b372ed26a6d1b04aec71c4bfcd209c93397df32bb77478cdd2c8910160405180910390a1600755565b5f610cbc611134565b610cc461114f565b835f03610ce457604051631f2a200560e01b815260040160405180910390fd5b5f610cee85610658565b90505f610cfd8260075461117a565b9050610d0981836119cc565b9250336001600160a01b03851614610d2657610d26843388610fd9565b610d308487611312565b8015610db357600854610d6d906001600160a01b0316827f0000000000000000000000000000000000000000000000000000000000000000610834565b8060095f828254610d7e91906119df565b90915550506008546040518281526001600160a01b03909116905f80516020611b748339815191529060200160405180910390a25b610dde85847f0000000000000000000000000000000000000000000000000000000000000000610834565b60408051838152602081018890526001600160a01b03808716929088169133917ffbde797d201c681b91056529119e0b02407c7bb96a4a2c75c01fc9667232c8db9101610c1c565b5f610663825f610faa565b5f61066361028c835b6001600160a01b0381165f90815260208190526040812054610663565b610e5f6110b2565b610e8b3330837f00000000000000000000000000000000000000000000000000000000000000006107ea565b50565b610e966110b2565b6001600160a01b038116610ebd5760405163d92e233d60e01b815260040160405180910390fd5b600854604080516001600160a01b03928316815291831660208301527faaebcf1bfa00580e41d966056b48521fa9f202645c86d4ddf28113e617c1b1d3910160405180910390a1600880546001600160a01b0319166001600160a01b0392909216919091179055565b610f2e6110b2565b6001600160a01b038116610f5757604051631e4fbdf760e01b81525f6004820152602401610720565b610e8b81611235565b5f6106aa610f6c610539565b610f779060016119df565b610f825f600a611ad2565b600254610f8f91906119df565b85919085611346565b610fa58383836001611391565b505050565b5f6106aa610fb982600a611ad2565b600254610fc691906119df565b610fce610539565b610f8f9060016119df565b6001600160a01b038381165f908152600160209081526040808320938616835292905220545f1981101561104f578181101561104157604051637dc7a0d960e11b81526001600160a01b03841660048201526024810182905260448101839052606401610720565b61104f84848484035f611391565b50505050565b6001600160a01b03831661107e57604051634b637e8f60e11b81525f6004820152602401610720565b6001600160a01b0382166110a75760405163ec442f0560e01b81525f6004820152602401610720565b610fa5838383611463565b6005546001600160a01b031633146106ec5760405163118cdaa760e01b8152336004820152602401610720565b6110e7611476565b6005805460ff60a01b191690557f5db9ee0a495bf2e6ff9c91a7834c1ba4fdd244a5e8aa4e537bd38aeae4b073aa335b6040516001600160a01b03909116815260200160405180910390a1565b61113c6114a0565b60025f80516020611b5483398151915255565b600554600160a01b900460ff16156106ec5760405163d93c066560e01b815260040160405180910390fd5b5f6127106111888385611ae0565b6106aa9190611b0b565b6111a08484848460016114cf565b61104f57604051635274afe760e01b81526001600160a01b0385166004820152602401610720565b6111d5838383600161153c565b610fa557604051635274afe760e01b81526001600160a01b0384166004820152602401610720565b6001600160a01b0382166112265760405163ec442f0560e01b81525f6004820152602401610720565b6112315f8383611463565b5050565b600580546001600160a01b038381166001600160a01b0319831681179093556040519116919082907f8be0079c531659141344cd1fd0a4f28419497f9722a3daafe3b4186f6b6457e0905f90a35050565b61128e61114f565b6005805460ff60a01b1916600160a01b1790557f62e78cea01bee320cd4e420270b5ea74000d11b0c9f74754ebdbfc544b05a2586111173390565b5f815f036112d8575081610663565b6112e4826127106119cc565b6001836127106112f48188611ae0565b6112fe91906119df565b61130891906119cc565b61118891906119cc565b6001600160a01b03821661133b57604051634b637e8f60e11b81525f6004820152602401610720565b611231825f83611463565b5f6113736113538361159e565b801561136e57505f848061136957611369611af7565b868809115b151590565b61137e8686866115ca565b61138891906119df565b95945050505050565b6001600160a01b0384166113ba5760405163e602df0560e01b81525f6004820152602401610720565b6001600160a01b0383166113e357604051634a1406b160e11b81525f6004820152602401610720565b6001600160a01b038085165f908152600160209081526040808320938716835292905220829055801561104f57826001600160a01b0316846001600160a01b03167f8c5be1e5ebec7d5bd14f71427d1e84f3dd0314c0f7b2291e5b200ac8c7c3b9258460405161145591815260200190565b60405180910390a350505050565b61146b61114f565b610fa583838361167a565b600554600160a01b900460ff166106ec57604051638dfc202b60e01b815260040160405180910390fd5b5f80516020611b54833981519152546002036106ec57604051633ee5aeb560e01b815260040160405180910390fd5b6040516323b872dd60e01b5f8181526001600160a01b038781166004528616602452604485905291602083606481808c5af1925060015f5114831661152b57838315161561151f573d5f823e3d81fd5b5f883b113d1516831692505b604052505f60605295945050505050565b60405163a9059cbb60e01b5f8181526001600160a01b038616600452602485905291602083604481808b5af1925060015f51148316611592578383151615611586573d5f823e3d81fd5b5f873b113d1516831692505b60405250949350505050565b5f60028260038111156115b3576115b3611b1e565b6115bd9190611b32565b60ff166001149050919050565b5f805f6115d786866117a0565b91509150815f036115fb578381816115f1576115f1611af7565b04925050506106aa565b8184116116125761161260038515026011186117bc565b5f848688095f868103871696879004966002600389028118808a02820302808a02820302808a02820302808a02820302808a02820302808a02909103029181900381900460010185841190960395909502919093039390930492909217029150509392505050565b6001600160a01b0383166116a4578060025f82825461169991906119df565b909155506117149050565b6001600160a01b0383165f90815260208190526040902054818110156116f65760405163391434e360e21b81526001600160a01b03851660048201526024810182905260448101839052606401610720565b6001600160a01b0384165f9081526020819052604090209082900390555b6001600160a01b0382166117305760028054829003905561174e565b6001600160a01b0382165f9081526020819052604090208054820190555b816001600160a01b0316836001600160a01b03167fddf252ad1be2c89b69c2b068fc378daa952ba7f163c4a11628f55a4df523b3ef8360405161179391815260200190565b60405180910390a3505050565b5f805f1983850993909202808410938190039390930393915050565b634e487b715f52806020526024601cfd5b5f602080835283518060208501525f5b818110156117f9578581018301518582016040015282016117dd565b505f604082860101526040601f19601f8301168501019250505092915050565b5f60208284031215611829575f80fd5b5035919050565b80356001600160a01b0381168114611846575f80fd5b919050565b5f806040838503121561185c575f80fd5b61186583611830565b946020939093013593505050565b5f805f60608486031215611885575f80fd5b61188e84611830565b925061189c60208501611830565b9150604084013590509250925092565b5f602082840312156118bc575f80fd5b6106aa82611830565b5f80604083850312156118d6575f80fd5b823591506118e660208401611830565b90509250929050565b5f805f60608486031215611901575f80fd5b8335925061191160208501611830565b915061191f60408501611830565b90509250925092565b5f8060408385031215611939575f80fd5b61194283611830565b91506118e660208401611830565b5f60208284031215611960575f80fd5b5051919050565b600181811c9082168061197b57607f821691505b60208210810361199957634e487b7160e01b5f52602260045260245ffd5b50919050565b634e487b7160e01b5f52601160045260245ffd5b60ff81811683821601908111156106635761066361199f565b818103818111156106635761066361199f565b808201808211156106635761066361199f565b600181815b80851115611a2c57815f1904821115611a1257611a1261199f565b80851615611a1f57918102915b93841c93908002906119f7565b509250929050565b5f82611a4257506001610663565b81611a4e57505f610663565b8160018114611a645760028114611a6e57611a8a565b6001915050610663565b60ff841115611a7f57611a7f61199f565b50506001821b610663565b5060208310610133831016604e8410600b8410161715611aad575081810a610663565b611ab783836119f2565b805f1904821115611aca57611aca61199f565b029392505050565b5f6106aa60ff841683611a34565b80820281158282048414176106635761066361199f565b634e487b7160e01b5f52601260045260245ffd5b5f82611b1957611b19611af7565b500490565b634e487b7160e01b5f52602160045260245ffd5b5f60ff831680611b4457611b44611af7565b8060ff8416069150509291505056fe9b779b17422d0df92223018b32b4d1fa46e071723d6817e2486d003becc55f009dc46f23cfb5ddcad0ae7ea2be38d47fec07bb9382ec7e564efc69e036dd66cea2646970667358221220a54283380d32d872ca0667c8a18808d87ae1dd21db3347469fe88a7b6dde1a3764736f6c63430008180033","linkReferences":{}},"methodIdentifiers":{"FEE_DENOMINATOR()":"d73792a9","MAX_FEE()":"bc063e1a","allowance(address,address)":"dd62ed3e","approve(address,uint256)":"095ea7b3","asset()":"38d52e0f","balanceOf(address)":"70a08231","convertToAssets(uint256)":"07a2d13a","convertToShares(uint256)":"c6e6f592","decimals()":"313ce567","deposit(uint256,address)":"6e553f65","depositFeeBps()":"ab879827","feeRecipient()":"46904840","harvest(uint256)":"ddc63262","maxDeposit(address)":"402d267d","maxMint(address)":"c63d75b6","maxRedeem(address)":"d905777e","maxWithdraw(address)":"ce96cb77","mint(uint256,address)":"94bf804d","name()":"06fdde03","owner()":"8da5cb5b","pause()":"8456cb59","paused()":"5c975abb","previewDeposit(uint256)":"ef8b30f7","previewMint(uint256)":"b3d7f6b9","previewRedeem(uint256)":"4cdad506","previewWithdraw(uint256)":"0a28a477","redeem(uint256,address,address)":"ba087652","renounceOwnership()":"715018a6","setDepositFee(uint256)":"490ae210","setFeeRecipient(address)":"e74b981b","setWithdrawFee(uint256)":"b6ac642a","symbol()":"95d89b41","totalAssets()":"01e1d114","totalFeesCollected()":"60c6d8ae","totalSupply()":"18160ddd","transfer(address,uint256)":"a9059cbb","transferFrom(address,address,uint256)":"23b872dd","transferOwnership(address)":"f2fde38b","unpause()":"3f4ba83a","withdraw(uint256,address,address)":"b460af94","withdrawFeeBps()":"7aca2b59"},"id":41}